{
  "contractName": "PaperCoin",
  "abi": [
    {
      "constant": true,
      "inputs": [],
      "name": "name",
      "outputs": [
        {
          "name": "",
          "type": "string"
        }
      ],
      "payable": false,
      "stateMutability": "view",
      "type": "function"
    },
    {
      "constant": true,
      "inputs": [],
      "name": "totalSupply",
      "outputs": [
        {
          "name": "",
          "type": "uint256"
        }
      ],
      "payable": false,
      "stateMutability": "view",
      "type": "function"
    },
    {
      "constant": true,
      "inputs": [],
      "name": "symbol",
      "outputs": [
        {
          "name": "",
          "type": "string"
        }
      ],
      "payable": false,
      "stateMutability": "view",
      "type": "function"
    },
    {
      "constant": true,
      "inputs": [],
      "name": "admin",
      "outputs": [
        {
          "name": "",
          "type": "address"
        }
      ],
      "payable": false,
      "stateMutability": "view",
      "type": "function"
    },
    {
      "inputs": [
        {
          "name": "_tokenName",
          "type": "string"
        },
        {
          "name": "_tokenSymbol",
          "type": "string"
        }
      ],
      "payable": false,
      "stateMutability": "nonpayable",
      "type": "constructor"
    },
    {
      "payable": true,
      "stateMutability": "payable",
      "type": "fallback"
    },
    {
      "anonymous": false,
      "inputs": [
        {
          "indexed": false,
          "name": "_tokens",
          "type": "uint256"
        },
        {
          "indexed": false,
          "name": "_totalSupply",
          "type": "uint256"
        }
      ],
      "name": "TokenMinted",
      "type": "event"
    },
    {
      "anonymous": false,
      "inputs": [
        {
          "indexed": false,
          "name": "from",
          "type": "address"
        },
        {
          "indexed": false,
          "name": "to",
          "type": "address"
        },
        {
          "indexed": false,
          "name": "value",
          "type": "uint256"
        }
      ],
      "name": "Transfer",
      "type": "event"
    },
    {
      "constant": true,
      "inputs": [
        {
          "name": "_owner",
          "type": "address"
        }
      ],
      "name": "balanceOf",
      "outputs": [
        {
          "name": "",
          "type": "uint256"
        }
      ],
      "payable": false,
      "stateMutability": "view",
      "type": "function"
    },
    {
      "constant": false,
      "inputs": [
        {
          "name": "_to",
          "type": "address"
        },
        {
          "name": "_amount",
          "type": "uint256"
        }
      ],
      "name": "transfer",
      "outputs": [
        {
          "name": "",
          "type": "bool"
        }
      ],
      "payable": false,
      "stateMutability": "nonpayable",
      "type": "function"
    },
    {
      "constant": false,
      "inputs": [
        {
          "name": "_from",
          "type": "address"
        },
        {
          "name": "_to",
          "type": "address"
        },
        {
          "name": "_amount",
          "type": "uint256"
        }
      ],
      "name": "transferFrom",
      "outputs": [
        {
          "name": "",
          "type": "bool"
        }
      ],
      "payable": false,
      "stateMutability": "nonpayable",
      "type": "function"
    },
    {
      "constant": false,
      "inputs": [
        {
          "name": "_tokens",
          "type": "uint256"
        }
      ],
      "name": "mint",
      "outputs": [],
      "payable": false,
      "stateMutability": "nonpayable",
      "type": "function"
    }
  ],
  "bytecode": "0x60806040523480156200001157600080fd5b50604051620011f7380380620011f7833981018060405281019080805182019291906020018051820192919050505033600160006101000a81548173ffffffffffffffffffffffffffffffffffffffff021916908373ffffffffffffffffffffffffffffffffffffffff160217905550816002908051906020019062000099929190620000bb565b508060039080519060200190620000b2929190620000bb565b5050506200016a565b828054600181600116156101000203166002900490600052602060002090601f016020900481019282601f10620000fe57805160ff19168380011785556200012f565b828001600101855582156200012f579182015b828111156200012e57825182559160200191906001019062000111565b5b5090506200013e919062000142565b5090565b6200016791905b808211156200016357600081600090555060010162000149565b5090565b90565b61107d806200017a6000396000f30060806040526004361061008e576000357c0100000000000000000000000000000000000000000000000000000000900463ffffffff16806306fdde031461009057806318160ddd1461012057806323b872dd1461014b57806370a08231146101d057806395d89b4114610227578063a0712d68146102b7578063a9059cbb146102e4578063f851a44014610349575b005b34801561009c57600080fd5b506100a56103a0565b6040518080602001828103825283818151815260200191508051906020019080838360005b838110156100e55780820151818401526020810190506100ca565b50505050905090810190601f1680156101125780820380516001836020036101000a031916815260200191505b509250505060405180910390f35b34801561012c57600080fd5b5061013561043e565b6040518082815260200191505060405180910390f35b34801561015757600080fd5b506101b6600480360381019080803573ffffffffffffffffffffffffffffffffffffffff169060200190929190803573ffffffffffffffffffffffffffffffffffffffff16906020019092919080359060200190929190505050610444565b604051808215151515815260200191505060405180910390f35b3480156101dc57600080fd5b50610211600480360381019080803573ffffffffffffffffffffffffffffffffffffffff16906020019092919050505061087a565b6040518082815260200191505060405180910390f35b34801561023357600080fd5b5061023c6108c3565b6040518080602001828103825283818151815260200191508051906020019080838360005b8381101561027c578082015181840152602081019050610261565b50505050905090810190601f1680156102a95780820380516001836020036101000a031916815260200191505b509250505060405180910390f35b3480156102c357600080fd5b506102e260048036038101908080359060200190929190505050610961565b005b3480156102f057600080fd5b5061032f600480360381019080803573ffffffffffffffffffffffffffffffffffffffff16906020019092919080359060200190929190505050610b5e565b604051808215151515815260200191505060405180910390f35b34801561035557600080fd5b5061035e610ff3565b604051808273ffffffffffffffffffffffffffffffffffffffff1673ffffffffffffffffffffffffffffffffffffffff16815260200191505060405180910390f35b60028054600181600116156101000203166002900480601f0160208091040260200160405190810160405280929190818152602001828054600181600116156101000203166002900480156104365780601f1061040b57610100808354040283529160200191610436565b820191906000526020600020905b81548152906001019060200180831161041957829003601f168201915b505050505081565b60005481565b6000606060048101600036905010156104eb576040517f08c379a00000000000000000000000000000000000000000000000000000000081526004018080602001828103825260338152602001807f496e76616c6964205061796c6f61642053697a652e20506f737369626c65207381526020017f686f727420616464726573732061747461636b0000000000000000000000000081525060400191505060405180910390fd5b82600460008773ffffffffffffffffffffffffffffffffffffffff1673ffffffffffffffffffffffffffffffffffffffff16815260200190815260200160002054101515156105a2576040517f08c379a00000000000000000000000000000000000000000000000000000000081526004018080602001828103825260128152602001807f496e73756666696369656e742046756e6473000000000000000000000000000081525060200191505060405180910390fd5b600460008573ffffffffffffffffffffffffffffffffffffffff1673ffffffffffffffffffffffffffffffffffffffff1681526020019081526020016000205461063484600460008873ffffffffffffffffffffffffffffffffffffffff1673ffffffffffffffffffffffffffffffffffffffff1681526020019081526020016000205461101990919063ffffffff16565b1115156106a9576040517f08c379a00000000000000000000000000000000000000000000000000000000081526004018080602001828103825260138152602001807f496e76616c6964205472616e73616374696f6e0000000000000000000000000081525060200191505060405180910390fd5b6106fb83600460008873ffffffffffffffffffffffffffffffffffffffff1673ffffffffffffffffffffffffffffffffffffffff1681526020019081526020016000205461103590919063ffffffff16565b600460008773ffffffffffffffffffffffffffffffffffffffff1673ffffffffffffffffffffffffffffffffffffffff1681526020019081526020016000208190555061079083600460008773ffffffffffffffffffffffffffffffffffffffff1673ffffffffffffffffffffffffffffffffffffffff1681526020019081526020016000205461101990919063ffffffff16565b600460008673ffffffffffffffffffffffffffffffffffffffff1673ffffffffffffffffffffffffffffffffffffffff168152602001908152602001600020819055507fddf252ad1be2c89b69c2b068fc378daa952ba7f163c4a11628f55a4df523b3ef338585604051808473ffffffffffffffffffffffffffffffffffffffff1673ffffffffffffffffffffffffffffffffffffffff1681526020018373ffffffffffffffffffffffffffffffffffffffff1673ffffffffffffffffffffffffffffffffffffffff168152602001828152602001935050505060405180910390a1509392505050565b6000600460008373ffffffffffffffffffffffffffffffffffffffff1673ffffffffffffffffffffffffffffffffffffffff168152602001908152602001600020549050919050565b60038054600181600116156101000203166002900480601f0160208091040260200160405190810160405280929190818152602001828054600181600116156101000203166002900480156109595780601f1061092e57610100808354040283529160200191610959565b820191906000526020600020905b81548152906001019060200180831161093c57829003601f168201915b505050505081565b600160009054906101000a900473ffffffffffffffffffffffffffffffffffffffff1673ffffffffffffffffffffffffffffffffffffffff163373ffffffffffffffffffffffffffffffffffffffff16141515610a26576040517f08c379a000000000000000000000000000000000000000000000000000000000815260040180806020018281038252600c8152602001807f556e617574686f72697a6564000000000000000000000000000000000000000081525060200191505060405180910390fd5b610a3b8160005461101990919063ffffffff16565b600081905550610ab58160046000600160009054906101000a900473ffffffffffffffffffffffffffffffffffffffff1673ffffffffffffffffffffffffffffffffffffffff1673ffffffffffffffffffffffffffffffffffffffff1681526020019081526020016000205461101990919063ffffffff16565b60046000600160009054906101000a900473ffffffffffffffffffffffffffffffffffffffff1673ffffffffffffffffffffffffffffffffffffffff1673ffffffffffffffffffffffffffffffffffffffff168152602001908152602001600020819055507f5f7666687319b40936f33c188908d86aea154abd3f4127b4fa0a3f04f303c7da81600054604051808381526020018281526020019250505060405180910390a150565b600060406004810160003690501015610c05576040517f08c379a00000000000000000000000000000000000000000000000000000000081526004018080602001828103825260338152602001807f496e76616c6964205061796c6f61642053697a652e20506f737369626c65207381526020017f686f727420616464726573732061747461636b0000000000000000000000000081525060400191505060405180910390fd5b600160009054906101000a900473ffffffffffffffffffffffffffffffffffffffff1673ffffffffffffffffffffffffffffffffffffffff163373ffffffffffffffffffffffffffffffffffffffff161415610c6557610c6483610961565b5b82600460003373ffffffffffffffffffffffffffffffffffffffff1673ffffffffffffffffffffffffffffffffffffffff1681526020019081526020016000205410151515610d1c576040517f08c379a00000000000000000000000000000000000000000000000000000000081526004018080602001828103825260128152602001807f496e73756666696369656e742046756e6473000000000000000000000000000081525060200191505060405180910390fd5b600460008573ffffffffffffffffffffffffffffffffffffffff1673ffffffffffffffffffffffffffffffffffffffff16815260200190815260200160002054610dae84600460008873ffffffffffffffffffffffffffffffffffffffff1673ffffffffffffffffffffffffffffffffffffffff1681526020019081526020016000205461101990919063ffffffff16565b111515610e23576040517f08c379a00000000000000000000000000000000000000000000000000000000081526004018080602001828103825260138152602001807f496e76616c6964205472616e73616374696f6e0000000000000000000000000081525060200191505060405180910390fd5b610e7583600460003373ffffffffffffffffffffffffffffffffffffffff1673ffffffffffffffffffffffffffffffffffffffff1681526020019081526020016000205461103590919063ffffffff16565b600460003373ffffffffffffffffffffffffffffffffffffffff1673ffffffffffffffffffffffffffffffffffffffff16815260200190815260200160002081905550610f0a83600460008773ffffffffffffffffffffffffffffffffffffffff1673ffffffffffffffffffffffffffffffffffffffff1681526020019081526020016000205461101990919063ffffffff16565b600460008673ffffffffffffffffffffffffffffffffffffffff1673ffffffffffffffffffffffffffffffffffffffff168152602001908152602001600020819055507fddf252ad1be2c89b69c2b068fc378daa952ba7f163c4a11628f55a4df523b3ef338585604051808473ffffffffffffffffffffffffffffffffffffffff1673ffffffffffffffffffffffffffffffffffffffff1681526020018373ffffffffffffffffffffffffffffffffffffffff1673ffffffffffffffffffffffffffffffffffffffff168152602001828152602001935050505060405180910390a15092915050565b600160009054906101000a900473ffffffffffffffffffffffffffffffffffffffff1681565b6000828284019150811015151561102f57600080fd5b92915050565b6000828284039150811115151561104b57600080fd5b929150505600a165627a7a723058209592de44f56796e165b993ba78833718f0b9412605d7740bfcfd7259b49119f30029",
  "source": "pragma solidity ^0.4.24;\r\n\r\nimport './ERC20Basic.sol';\r\nimport './DSMath.sol';\r\n\r\ncontract PaperCoin is ERC20Basic {\r\n    \r\n    using DSMath for uint;\r\n    uint constant WAD = 10 ** 18;\r\n    \r\n    address public admin;\r\n    string public name;\r\n    string public symbol;\r\n    mapping (address => uint) internal balances;\r\n    \r\n    constructor(string _tokenName, string _tokenSymbol) public {\r\n        admin = msg.sender;\r\n        name = _tokenName;\r\n        symbol = _tokenSymbol;\r\n    }\r\n    \r\n    modifier onlyAdmin() {\r\n        require(msg.sender == admin, \"Unauthorized\");\r\n        _;\r\n    }\r\n    \r\n    /** @dev Fix for the ERC20 short address attack. Checks if the payload size meets the minimum length\r\n      * @param size length of the payload\r\n      */\r\n    modifier onlyPayloadSize(uint size) {\r\n        if (msg.data.length < size + 4) {\r\n            revert(\"Invalid Payload Size. Possible short address attack\");\r\n        }\r\n        _;\r\n    }\r\n    \r\n    function balanceOf(address _owner) public view returns (uint256) {\r\n        return balances[_owner];\r\n    }\r\n    \r\n   function transfer(address _to, uint256 _amount) public onlyPayloadSize(2 * 32) returns(bool) {\r\n       if(msg.sender == admin) {\r\n           mint(_amount);\r\n       }\r\n\r\n       require(balances[msg.sender] >= _amount, 'Insufficient Funds');\r\n       require(balances[_to].add(_amount) > balances[_to], 'Invalid Transaction');\r\n       balances[msg.sender] = balances[msg.sender].sub(_amount);\r\n       balances[_to] = balances[_to].add(_amount);\r\n       emit Transfer(msg.sender, _to, _amount);\r\n   }\r\n   \r\n   function transferFrom(address _from, address _to, uint _amount) external onlyPayloadSize(3 * 32) returns(bool) {\r\n       require(balances[_from] >= _amount, 'Insufficient Funds');\r\n       require(balances[_to].add(_amount) > balances[_to], 'Invalid Transaction');\r\n       balances[_from] = balances[_from].sub(_amount);\r\n       balances[_to] = balances[_to].add(_amount);\r\n       emit Transfer(msg.sender, _to, _amount);\r\n   }\r\n   \r\n   event TokenMinted(uint _tokens, uint _totalSupply);\r\n   function mint(uint _tokens) public onlyAdmin {\r\n       totalSupply = totalSupply.add(_tokens);\r\n       balances[admin] = balances[admin].add(_tokens);\r\n       emit TokenMinted(_tokens, totalSupply);\r\n   }\r\n\r\n   function() public payable {\r\n   }\r\n}\r\n\r\n\r\n",
  "sourcePath": "C:\\Users\\sreepriya.sreekumar\\Documents\\Boilerplates\\reactDapp\\src\\papertoken\\src\\truffle\\contracts\\PaperCoin.sol",
  "compiler": {
    "name": "solc",
    "version": "0.4.24+commit.e67f0147.Emscripten.clang"
  },
  "schemaVersion": "2.0.1",
  "updatedAt": "2018-11-18T15:15:45.473Z"
}